:100000000C94B5000C94D2000C94D2000C94D20045
:100010000C94D2000C94D2000C94D2000C94D20018
:100020000C94D2000C94D2000C9431010C94D200A8
:100030000C94D2000C948E010C94A5010C94D20067
:100040000C94D2000C94D2000C94D2000C94D200E8
:100050000C94D2000C94D2000C94D2000C94D200D8
:100060000C94D2000C94D2006E616E00696E660032
:1000700000407A10F35A00A0724E18090010A5D45F
:10008000E80000E87648170000E40B54020000CABC
:100090009A3B000000E1F505000080969800000002
:1000A00040420F000000A086010000001027000061
:1000B0000000E803000000006400000000000A00E7
:1000C000000000000100000000002C76D888DC67EA
:1000D0004F0823DFC1DFAE59E1B1B796E5E3E45342
:1000E000C63AE651997696E8E6C28426EB898C9B5F
:1000F00062ED407C6FFCEFBC9C9F40F2BAA56FA5FF
:10010000F490055A2AF75C936B6CF9676DC11BFC80
:10011000E0E40D47FEF520E6B500D0ED902E03009B
:10012000943577050080841E080000204E0A0000E8
:1001300000C80C333333330F986E12831141EF8DA7
:100140002114893BE65516CFFEE6DB18D1844B38E7
:100150001BF77C1D901DA4BBE424203284725E2218
:100160008100C9F124ECA1E53D2711241FBECFEF8A
:10017000D8E0DEBFCDBF11E0A0E0B1E0EAEFF6E1EC
:1001800002C005900D92A233B107D9F721E0A2E396
:10019000B1E001C01D92AA34B207E1F70E949603B4
:1001A0000C947B0B0C940000CF93C82F8A3019F469
:1001B0008DE00E94D400E0ECF0E0808185FFFDCF6F
:1001C000C093C60080E090E0CF910895E0ECF0E0AD
:1001D00080818823ECF78091C60090E0089510920A
:1001E000C50087E68093C400E0ECF0E080818D7F5D
:1001F000808386E08093C20088E18093C100E4E4BC
:10020000F1E08EE091E09383828380E091E091833E
:10021000808308952091360130913701809140010B
:10022000909141012817390748F480913E0190913F
:100230003F01019790933F0180933E0180913E01E1
:1002400090913F01809136019091370120914001BA
:1002500030914101821B930B90933D0180933C01AF
:1002600008951F920F920FB60F9211242F934F9360
:100270005F938F939F93AF93BF93EF93FF9380917F
:10028000420190914301892BF1F4E6E8F0E080818E
:100290009181909341018093400181E090E090939F
:1002A000430180934201A1E8B0E02C912F7B2C9375
:1002B0004081518126B302C0880F991F4A95E2F709
:1002C000822B86BB1DC0E6E8F0E08081918190938F
:1002D0003701809336011092430110924201408110
:1002E000518126B381E090E002C0880F991F4A95A2
:1002F000E2F7822B86BBE1E8F0E0808180648083B6
:10030000FF91EF91BF91AF919F918F915F914F912D
:100310002F910F900FBE0F901F9018951F920F9264
:100320000FB60F9211248F939F9380913E0190916D
:100330003F01019690933F0180933E019F918F91E1
:100340000F900FBE0F901F9018951F920F920FB62F
:100350000F9211242F933F934F935F936F937F934B
:100360008F939F93AF93BF93EF93FF9380913C0143
:1003700090913D019093390180933801809138012B
:1003800090913901843F914034F484EF91E090934F
:100390003901809338018091380190913901893871
:1003A000934134F088E893E19093390180933801C8
:1003B0006091380170913901072E000C880B990B60
:1003C0000E94070520E030E44CE955E40E945D04FA
:1003D00020E030E040E851E40E94BC0520E030E03D
:1003E00040E651E40E94EC030E94CF0470933B016D
:1003F00060933A019BB180E489278BB9EEE6F0E087
:1004000080818D7F8083FF91EF91BF91AF919F910C
:100410008F917F916F915F914F913F912F910F90AD
:100420000FBE0F901F90189580913A0190913B015B
:1004300087BD6091380170913901072E000C880B3F
:10044000990B0E94070520E030E44CE955E40E9436
:100450005D0420E030ED42E854E40E94BC059B01BD
:10046000AC0160E070ED82E095E40E94EB03262F82
:10047000372F462F572F682F792F409332015093F3
:10048000330160933401709335019F938F933F93B1
:100490002F938CE191E09F938F930E94070B0F9015
:1004A0000F900F900F900F900F900895CF92DF92C2
:1004B000EF92FF926091380170913901072E000C84
:1004C000880B990B0E94070520E030E44CE955E4C5
:1004D0000E945D046B017C0120E030E0A9010E94D4
:1004E000B7051816C4F42AE939E949E55EE3C701FE
:1004F000B6010E945804181674F080E090EDA2E056
:10050000B5E48093320190933301A0933401B0930A
:1005100035018EE087BD2AE939E949E55EE3C70187
:10052000B6010E94B7051816C4F426E636E646EA78
:100530005EE3C701B6010E945804181674F086EFF6
:1005400090EFA6EFB4E48093320190933301A0932F
:100550003401B09335018FE087BD26E636E646EAE2
:100560005EE3C701B6010E94B7051816C4F420E087
:1005700030E040EE5EE3C701B6010E945804181651
:1005800074F080E090E0ACEDB4E48093320190939D
:100590003301A0933401B093350181E187BD20E0A0
:1005A00030E040EE5EE3C701B6010E94B7051816C1
:1005B000C4F42DEC3CEC4CE05FE3C701B6010E94B3
:1005C0005804181674F08CE59FEFA3ECB4E4809304
:1005D000320190933301A0933401B093350183E14C
:1005E00087BD2DEC3CEC4CE05FE3C701B6010E94F7
:1005F000B7051816C4F42AE939E949E25FE3C701EF
:10060000B6010E945804181674F08FE19DE9AEEA15
:10061000B4E48093320190933301A0933401B093FA
:10062000350186E187BD2AE939E949E25FE3C7017F
:10063000B6010E94B7051816C4F426E636E646E46D
:100640005FE3C701B6010E945804181674F082E5F2
:1006500090EDA4EAB4E48093320190933301A09327
:100660003401B093350187E187BD26E636E646E4DE
:100670005FE3C701B6010E94B7051816C4F423E36F
:1006800033E343E65FE3C701B6010E94580418163E
:1006900074F08FE195EDA2E9B4E480933201909378
:1006A0003301A0933401B09335018AE187BD23E380
:1006B00033E343E65FE3C701B6010E94B7051816AE
:1006C000C4F420E030E040E85FE3C701B6010E94D7
:1006D0005804181674F080E090EDA2E8B4E480931A
:1006E000320190933301A0933401B09335018CE132
:1006F00087BD809135018F93809134018F938091D4
:1007000033018F93809132018F938CE191E09F931D
:100710008F930E94070B0F900F900F900F900F90E8
:100720000F90FF90EF90DF90CF9008950E94EF0020
:10073000219A569A209885B1836085B9EFE6F0E05A
:10074000808181628083E1E8F0E080818164808340
:1007500084B5826484BD85B5846085BD16BC109265
:100760008500109284001092410110924001109275
:1007700037011092360110924301109242011092FB
:100780003F0110923E0110923B0110923A011092EB
:10079000390110923801789404E810E06894FF243D
:1007A000F1F8CEE6D0E0F801808191818F34910597
:1007B00028F085B18F2585B9118210820E940A0127
:1007C000888182608883189903C00E945602EBCF0B
:1007D0000E941402E8CF5058BB27AA270E940304A6
:1007E0000C947D050E946F0538F00E94760520F07C
:1007F00039F49F3F19F426F40C946C050EF4E0953F
:10080000E7FB0C946605E92F0E948E0558F3BA1792
:10081000620773078407950720F079F4A6F50C9416
:10082000B0050EF4E0950B2EBA2FA02D0B01B901E7
:1008300090010C01CA01A0011124FF27591B99F056
:10084000593F50F4503E68F11A16F040A22F232F62
:10085000342F4427585FF3CF469537952795A795B2
:10086000F0405395C9F77EF41F16BA0B620B730B59
:10087000840BBAF09150A1F0FF0FBB1F661F771FCA
:10088000881FC2F70EC0BA0F621F731F841F48F47F
:10089000879577956795B795F7959E3F08F0B0CF08
:1008A0009395880F08F09927EE0F979587950895EF
:1008B0000E94420508F481E008950E9471040C949E
:1008C0007D050E94760558F00E946F0540F029F4DE
:1008D0005F3F29F00C94660551110C94B1050C94FE
:1008E0006C050E948E0568F39923B1F3552391F3AB
:1008F000951B550BBB27AA2762177307840738F08F
:100900009F5F5F4F220F331F441FAA1FA9F335D0EB
:100910000E2E3AF0E0E832D091505040E695001C9F
:10092000CAF72BD0FE2F29D0660F771F881FBB1F59
:10093000261737074807AB07B0E809F0BB0B802D37
:10094000BF01FF2793585F4F3AF09E3F510578F063
:100950000C9466050C94B1055F3FE4F3983ED4F324
:10096000869577956795B795F7959F5FC9F7880F37
:10097000911D9695879597F90895E1E0660F771F89
:10098000881FBB1F621773078407BA0720F0621B1A
:10099000730B840BBA0BEE1F88F7E09508950E9445
:1009A000D6046894B1110C94B10508950E9496057F
:1009B00088F09F5798F0B92F9927B751B0F0E1F020
:1009C000660F771F881F991F1AF0BA95C9F714C0D0
:1009D000B13091F00E94B005B1E008950C94B005DB
:1009E000672F782F8827B85F39F0B93FCCF3869509
:1009F00077956795B395D9F73EF490958095709566
:100A000061957F4F8F4F9F4F0895E89409C097FBE2
:100A10003EF490958095709561957F4F8F4F9F4FD5
:100A20009923A9F0F92F96E9BB279395F695879519
:100A300077956795B795F111F8CFFAF4BB0F11F4DC
:100A400060FF1BC06F5F7F4F8F4F9F4F16C0882383
:100A500011F096E911C0772321F09EE8872F762FB9
:100A600005C0662371F096E8862F70E060E02AF0FA
:100A70009A95660F771F881FDAF7880F96958795E6
:100A800097F90895990F0008550FAA0BE0E8FEEFBB
:100A900016161706E807F907C0F012161306E40742
:100AA000F50798F0621B730B840B950B39F40A263B
:100AB00061F0232B242B252B21F408950A2609F419
:100AC000A140A6958FEF811D811D089597F99F671D
:100AD00080E870E060E008959FEF80EC08950024C6
:100AE0000A941616170618060906089500240A9493
:100AF00012161306140605060895092E0394000C19
:100B000011F4882352F0BB0F40F4BF2B11F460FFA7
:100B100004C06F5F7F4F8F4F9F4F089557FD9058D0
:100B2000440F551F59F05F3F71F04795880F97FBB1
:100B3000991F61F09F3F79F087950895121613066B
:100B40001406551FF2CF4695F1DF08C0161617069A
:100B50001806991FF1CF86957105610508940895CF
:100B6000E894BB2766277727CB0197F908950E9461
:100B7000420508F48FEF08950E94CF050C947D057F
:100B80000E946F0538F00E94760520F0952311F041
:100B90000C9466050C946C0511240C94B1050E940C
:100BA0008E0570F3959FC1F3950F50E0551F629F1E
:100BB000F001729FBB27F00DB11D639FAA27F00DB6
:100BC000B11DAA1F649F6627B00DA11D661F829FDD
:100BD0002227B00DA11D621F739FB00DA11D621FC2
:100BE000839FA00D611D221F749F3327A00D611DDF
:100BF000231F849F600D211D822F762F6A2F1124C1
:100C00009F5750409AF0F1F088234AF0EE0FFF1FF3
:100C1000BB1F661F771F881F91505040A9F79E3F4A
:100C2000510580F00C9466050C94B1055F3FE4F328
:100C3000983ED4F3869577956795B795F795E795A0
:100C40009F5FC1F7FE2B880F911D9695879597F9A9
:100C50000895A0E1B0E0EFE2F6E00C94A6097C0173
:100C60001B016A01FC0117821682838181FF44C344
:100C70009E012F5F3F4F3901F7019381F10193FDF1
:100C8000859193FF81911F01882309F431C3853237
:100C900039F493FD859193FF81911F01853239F4D9
:100CA000B70190E00E94CB0A56016501E5CF10E044
:100CB000512C912CFFE1F915D8F08B3279F038F4F2
:100CC000803279F08332A1F4F92DF0612EC08D329B
:100CD00061F0803369F4292D21602DC0392D3260F7
:100CE000932E892D8460982E2AC0E92DE86015C0C6
:100CF00097FC2DC020ED280F2A3088F496FE06C000
:100D00003AE0139F200D1124122F19C08AE0589E3B
:100D1000200D1124522EE92DE0629E2E10C08E323D
:100D200031F496FCE5C2F92DF0649F2E08C08C3694
:100D300021F4292D2068922E02C0883641F4F10159
:100D400093FD859193FF81911F018111B3CF9BEB9F
:100D5000980F933020F4992D9061805E07C09BE935
:100D6000980F933008F066C1992D9F7E96FF16E08C
:100D70009F73992E853619F49064992E08C0863693
:100D800021F4392F3068932E02C01111115097FEB3
:100D900007C01C3350F444244394410E27E00BC099
:100DA000183038F027E017E005C027E09CE3492E13
:100DB00002C0212F412C560184E0A80EB11CF6017F
:100DC0006081718182819381042DA3010E94DD09DC
:100DD0006C01F981FC87F0FF02C0F3FF06C091FCB3
:100DE00006C092FE06C000E205C00DE203C00BE2A1
:100DF00001C000E08C858C7019F001115AC29BC2B1
:100E000097FE10C04C0CFC85F4FF04C08A8181332E
:100E100009F44A94141474F528E0241578F588E050
:100E2000482E2CC096FC2AC0812F90E08C159D0581
:100E30009CF03CEFC3163FEFD30674F0892D806819
:100E4000982E0AC0E2E0F0E0EC0FFD1FE10FF11D6B
:100E50008081803319F411501111F4CF97FE0EC028
:100E600044244394410E812F90E0C816D9062CF4F7
:100E70001C1904C04424439401C010E097FE06C02E
:100E80001C141D0434F4C601019605C085E090E0F1
:100E900002C081E090E001110196112331F0212F71
:100EA00030E02F5F3F4F820F931F252D30E08217D8
:100EB000930714F4581A01C0512C892D897049F4F4
:100EC000552039F0B70180E290E00E94CB0A5A9495
:100ED000F7CF002329F0B701802F90E00E94CB0AC2
:100EE00093FC09C0552039F0B70180E390E00E94DF
:100EF000CB0A5A94F7CF97FE4CC04601D7FE02C0EA
:100F0000812C912CC60188199909F301E80FF91F6A
:100F1000FE87ED87960124193109388B2F87012F21
:100F200010E01195019511093FEF8316930629F4FE
:100F3000B7018EE290E00E94CB0AC814D9044CF0AD
:100F40008F8598898815990524F4ED85FE85818122
:100F500001C080E3F1E08F1A91082D853E852F5F57
:100F60003F4F3E872D87801691062CF0B70190E009
:100F70000E94CB0AD9CFC814D90441F49A81963380
:100F800020F4953319F43C8534FF81E3B70190E0F8
:100F90004EC08A81813319F09C859F7E9C87B70162
:100FA00090E00E94CB0A111105C094FC18C085E6A0
:100FB00090E017C0B7018EE290E00E94CB0A1E5F5E
:100FC00082E001E0080FF301E80FF11D8081B70115
:100FD00090E00E94CB0A802F0113F3CFE6CF85E487
:100FE00090E0B7010E94CB0AD7FC06C0C114D1041F
:100FF00041F4EC85E4FF05C0D194C194D1088DE2A1
:1010000001C08BE2B70190E00E94CB0A80E32AE0A6
:10101000C216D1042CF08F5FFAE0CF1AD108F7CFB7
:10102000B70190E00E94CB0AB701C601C0960E94AA
:10103000CB0A54C1833631F0833779F0833509F018
:1010400056C020C0560132E0A30EB11CF6018081CB
:10105000898301E010E0630112C05601F2E0AF0E97
:10106000B11CF601C080D18096FE03C0612F70E0F4
:1010700002C06FEF7FEFC6010E94C00A8C01F92DFC
:10108000FF7714C0560122E0A20EB11CF601C08009
:10109000D18096FE03C0612F70E002C06FEF7FEF3A
:1010A000C6010E94B50A8C01F92DF0689F2EF3FD50
:1010B0001AC0852D90E008171907A8F4B70180E23F
:1010C00090E00E94CB0A5A94F4CFF60197FC8591E8
:1010D00097FE81916F01B70190E00E94CB0A5110F9
:1010E0005A94015011090115110579F7F7C084369A
:1010F00011F0893661F5560197FE09C024E0A20E71
:10110000B11CF60160817181828193810AC0F2E095
:10111000AF0EB11CF60160817181072E000C880BA7
:10112000990BF92DFF769F2E97FF09C0909580951A
:10113000709561957F4F8F4F9F4FF0689F2E2AE0EB
:1011400030E0A3010E941D0BC82EC6183FC0092D18
:10115000853721F40F7E2AE030E01DC0097F8F36ED
:1011600091F018F4883559F0C3C0803719F08837EA
:1011700011F0BEC0006104FF09C0046007C094FE06
:1011800008C0066006C028E030E005C020E130E07D
:1011900002C020E132E0560107FF09C084E0A80E3A
:1011A000B11CF601608171818281938108C0F2E0F7
:1011B000AF0EB11CF6016081718180E090E0A30167
:1011C0000E941D0BC82EC6180F77902E96FE0BC0DE
:1011D000092D0E7FC11650F494FE0AC092FC08C07F
:1011E000092D0E7E05C0DC2C092D03C0DC2C01C0AE
:1011F000D12E04FF0DC0FE01EC0DF11D8081803366
:1012000011F4097E09C002FF06C0D394D39404C030
:10121000802F867809F0D39403FD11C000FF06C02B
:101220001C2DD51480F4150D1D190DC0D51458F4BE
:10123000B70180E290E00E94CB0AD394F7CFD51497
:1012400010F45D1801C0512C04FF10C0B70180E3F9
:1012500090E00E94CB0A02FF17C001FD03C088E79F
:1012600090E002C088E590E0B7010CC0802F86783E
:1012700059F001FF02C08BE201C080E207FD8DE260
:10128000B70190E00E94CB0AC11638F4B70180E3A1
:1012900090E00E94CB0A1150F7CFCA94F301EC0DF5
:1012A000F11D8081B70190E00E94CB0AC110F5CFFB
:1012B00015C0F4E0F51560F584E0581A93FE1FC0E0
:1012C000011127C02C8523FF2AC008E610E0392D24
:1012D0003071932EF8018491811124C0552009F4B6
:1012E000E4CCB70180E290E00E94CB0A5A94F6CF9A
:1012F000F7018681978126C08FEF9FEF23C0B7014A
:1013000080E290E00E94CB0A5A945110F8CFD8CFD7
:10131000512CB701802F90E00E94CB0AD3CF0CE66E
:1013200010E0D5CF91108052B70190E00E94CB0A17
:101330000F5F1F4FCFCF23E0251510F483E0BDCF03
:10134000512CC0CF6096E2E10C94C2092F923F92DB
:101350004F925F926F927F928F929F92AF92BF92C5
:10136000CF92DF92EF92FF920F931F93CF93DF9371
:10137000CDB7DEB7CA1BDB0B0FB6F894DEBF0FBECE
:10138000CDBF09942A88398848885F846E847D841B
:101390008C849B84AA84B984C884DF80EE80FD801D
:1013A0000C811B81AA81B981CE0FD11D0FB6F89493
:1013B000DEBF0FBECDBFED010895283008F027E055
:1013C0003327DA01990F311D87FD91600096610581
:1013D000710539F432602E5F3D9330E32A95E1F7D1
:1013E00008959F3F30F080387105610509F03C5F3A
:1013F0003C5F3D93913008F08068911DDF93CF935F
:101400001F930F93FF92EF92192F987F9695E92FD4
:1014100096959695E90FFF27E653FF4F99273327B7
:10142000EE24FF24A701E70105900894079428F40F
:10143000360FE71EF81E491F511D660F771F881FC4
:10144000991F0694A1F70590079428F4E70EF81E5B
:10145000491F561FC11D770F881F991F661F0694CD
:10146000A1F70590079428F4F80E491F561FC71FCF
:10147000D11D880F991F661F771F0694A1F705904D
:10148000079420F4490F561FC71FD81F990F661FD6
:10149000771F881F0694A9F784911095177041F063
:1014A000D695C79557954795F794E7941A95C1F740
:1014B000E0E7F0E06894159015913591659195916C
:1014C00005907FE27395E118F10A430B560BC90BA7
:1014D000D009C0F7E10CF11E431F561FC91FD01DD4
:1014E0007EF4703311F48A95E6CFE894015030F021
:1014F000080F0AF40027021708F4202F2395022F63
:101500007A3328F079E37D932A95E9F710C07D932B
:101510002A9589F6069497956795379517951794A8
:10152000E118F10A430B560BC90BD00998F023952B
:101530007E9173957A3308F070E37C932013B8F7AB
:101540007E9170617D9330F0839571E37D9370E3BC
:101550002A95E1F71124EF90FF900F911F91CF9101
:10156000DF91992787FD90950895FC0105906150C2
:1015700070400110D8F7809590958E0F9F1F0895A9
:10158000FC016150704001900110D8F78095909552
:101590008E0F9F1F08950F931F93CF93DF93FB012F
:1015A000238121FD03C08FEF9FEF2CC022FF16C0C7
:1015B00046815781248135814217530744F4A08125
:1015C000B1819D012F5F3F4F318320838C93268112
:1015D00037812F5F3F4F3783268314C08B01EC0187
:1015E000FB010084F185E02D0995892BE1F6D801F6
:1015F00016968D919C911797019617969C938E93B2
:101600001697CE01DF91CF911F910F910895A0E021
:10161000B0E0EDE0FBE00C94B609AE014B5F5F4F2C
:10162000FA0161917191AF0180914601909147015A
:101630000E942906E2E00C94D209FA01AA27283078
:1016400051F1203181F1E8946F936E7F6E5F7F4F8F
:101650008F4F9F4FAF4FB1E03ED0B4E03CD0670F0B
:10166000781F891F9A1FA11D680F791F8A1F911D5E
:10167000A11D6A0F711D811D911DA11D20D009F4AE
:1016800068943F912AE0269F11243019305D3193F0
:10169000DEF6CF010895462F4770405D4193B3E0D9
:1016A0000FD0C9F7F6CF462F4F70405D4A3318F080
:1016B000495D31FD4052419302D0A9F7EACFB4E031
:1016C000A6959795879577956795BA95C9F70097E9
:1016D0006105710508959B01AC010A2E069457958A
:1016E000479537952795BA95C9F7620F731F841FE1
:0A16F000951FA01D0895F894FFCF88
:1016FA0000000001000000000000E60000000000F9
:10170A00000200000000D40000000000467265716B
:10171A0075656E637920697320252E326620487AB2
:02172A000A00B3
:00000001FF
